:100000000C942A000C943F000C943F000C943F0089
:100010000C943F000C943F000C943F000C943F0064
:100020000C943F000C943F000C943F000C943F0054
:100030000C943F000C943F000C943F000C943F0044
:100040000C943F000C943F000C943F000C943F0034
:100050000C943F0011241FBECFE5D4E0DEBFCDBF1E
:1000600010E0A0E6B0E0E6ECF3E002C005900D92EF
:10007000AA39B107D9F70E9412010C94E1010C943E
:100080000000C498C5984AEF50E0FA013197F1F7A3
:10009000C69AFA013197F1F795B3282F207F9F7008
:1000A000292B25BBFA013197F1F7C698FA01319750
:1000B000F1F7C69AFA013197F1F795B38295807FEF
:1000C0009F70982B95BBCA010197F1F7C698CA019A
:1000D0000197F1F7089587B3806787BB84B3806F7A
:1000E00084BB82E00E94410088E20E9441008CE0D3
:1000F0000E94410081E00E9441000895C49AC59881
:100100004AEF50E0FA013197F1F7C69AFA013197B8
:10011000F1F795B3282F207F9F70292B25BBFA017B
:100120003197F1F7C698FA013197F1F7C69AFA01BB
:100130003197F1F795B38295807F9F70982B95BB8F
:10014000CA010197F1F7C698CA010197F1F708951E
:100150001F93CF93DF93EC0110E003C00E947E0059
:100160001F5FFE01E10FF11D80818823B9F7DF9148
:10017000CF911F910895813041F0813058F0823045
:1001800031F0833031F060E005C0605C03C0605F37
:1001900001C0605B862F80680E94410008950F9324
:1001A0001F938A010E94BB00C8010E94A8001F91F2
:1001B0000F91089581E00E94410008950F931F93CD
:1001C000DF93CF93CDB7DEB760970FB6F894DEBF5D
:1001D0000FBECDBF8E010F5F1F4FB8014AE050E048
:1001E0000E949C01C8010E94A80060960FB6F89476
:1001F000DEBF0FBECDBFCF91DF911F910F9108954C
:1002000082E08BB988E18AB986E880BD10BC8CE0B9
:1002100089B908955D9BFECF8CB908955F9BFECF91
:100220008CB108951F93CF93DF930E9400010E9429
:100230006B009798969894989598DB989298DC988C
:1002400093988E9A8D9A8C9A8F9A8A9A8B9AA49A5E
:10025000A59AA69AA79AD39AD49ABB9ABA9AB99A07
:100260000E94DA0080E690E00E94A80011E0C9E157
:10027000D0E00E940E01833661F1843628F4813685
:1002800041F08236B1F715C0843699F1853689F789
:1002900043C0979A969A0E94DA008DE690E00E94F9
:1002A000A80084E991E1FE013197F1F70197D9F7B0
:1002B0002FC0949A959A0E94DA0088E790E00E94F5
:1002C000A80084E991E1FE013197F1F70197D9F790
:1002D0001FC0DB9A929A0E94DA0083E890E00E94A5
:1002E000A80084E991E1FE013197F1F70197D9F770
:1002F0000FC0DC9A939A0E94DA008EE890E00E9488
:10030000A80084E991E1FE013197F1F70197D9F74F
:100310000E94DA0010E0ADCF112321F480E690E0D6
:100320000E94A8009798969894989598DB98929830
:10033000DC98939811E09DCFFB019F01E894423037
:10034000C4F04532B4F44A3029F497FB1EF490957A
:1003500081959F4F642F77270E94CD01805D8A335E
:100360000CF0895D8193CB010097A1F716F45DE253
:1003700051931082C9010C94BD01DC01FC01672F6F
:1003800071917723E1F7329704C07C916D9370836C
:100390006291AE17BF07C8F30895AA1BBB1B51E1BA
:1003A00007C0AA1FBB1FA617B70710F0A61BB70BE5
:1003B000881F991F5A95A9F780959095BC01CD018A
:0603C0000895F894FFCF40
:1003C6004E6F7420696E2052616E67650076616CAF
:1003D60076652031204F4E0076616C76652032209E
:1003E6004F4E0076616C76652033204F4E00766165
:0A03F6006C76652034204F4E0000A5
:00000001FF
